:03000000020026D5
:0C002600787FE4F6D8FD75810802006DBB
:1000B20030900D30910A1201B17F147E00120003BC
:1000C2002090092091063092031201963090272049
:1000D200912430900D30910A1201B17F147E0012EA
:1000E20000031201BA7F1E7E001200031201A87FD4
:1000F200787E001200032090273091241201BA7FEB
:100102001E7E0012000330900D30910A1201B17F61
:10011200147E0012000312019F7F787E00120003FA
:0101220022BA
:10000300E4FDFCC3ED9FEC9E5015E4FBFA0BBB0033
:0F001300010AEB64854A70F50DBD00010C80E415
:0100220022BB
:10015E001201803092051200B280F82092F5E50867
:10016E00647160EF1201B1E508647160E61201235B
:02017E0080F50A
:09019600D280C281D283C2822210
:09019F00D280C281C283D2822207
:0901A800C280D281D283C28222FE
:0901B100C280C281C283C2822215
:0901BA00C280D281C283D28222EC
:0301CC00010830F7
:10018000758920758DFD758BFDD28EC29FD29ED252
:060190009CD2ACD2AF22AC
:10012300E508B46103120196E508B462031201B154
:10013300E508B4630C1201A87F327E00120003802D
:10014300EFE508B4640C12019F7F327E00120003B6
:0B01530080EFE508B465031201BA223A
:030023000201C314
:0901C300309805C29885990832B4
:1000320002015EE493A3F8E493A34003F68001F285
:1000420008DFF48029E493A3F85407240CC8C333CF
:10005200C4540F4420C8834004F456800146F6DF9E
:10006200E4800B01020408102040809001CCE47E61
:10007200019360BCA3FF543F30E509541FFEE49393
:10008200A360010ECF54C025E060A840B8E493A35A
:10009200FAE493A3F8E493A3C8C582C8CAC583CA85
:1000A200F0A3C8C582C8CAC583CADFE9DEE780BE3D
:0101CF00002F
:00000001FF
